S00E000073656D7072652E737265638A
S11300000C9434000C9451000C9451000C94510045
S11300100C9451000C9453000C9451000C94D40093
S11300200C9451000C9451000C9451000C94BD009C
S11300300C9451000C9451000C94A6000C945100A3
S11300400C9451000C9451000C9451000C945100E8
S11300500C9451000C9451000C9451000C945100D8
S11300600C9451000C94510011241FBECFEFD8E022
S1130070DEBFCDBF11E0A0E0B1E0E6E3F4E002C0F2
S113008005900D92A630B107D9F721E0A6E0B1E0C2
S113009001C01D92A531B207E1F70E944C010C94F6
S11300A019020C9400001F920F920FB60F921124A4
S11300B02F933F934F935F936F937F938F939F936C
S11300C0AF93BF93EF9349B180910501482789B15C
S11300D08093050182E090E070E050E0A1E0B0E0A0
S11300E0E1E09A01082E02C0359527950A94E2F7BB
S11300F020FF14C029B130E0082E02C035952795A1
S11301000A94E2F720FD0AC09D01082E02C0220FC6
S1130110331F0A94E2F7209314017E2F019688304E
S11301209105F9F6711102C010921401EF91BF917B
S1130130AF919F918F917F916F915F914F913F917B
S11301402F910F900FBE0F901F9018951F920F9232
S11301500FB60F9211248F939F9380910A0190916F
S11301600B01019690930B0180930A019F918F914B
S11301700F900FBE0F901F9018951F920F920FB6FD
S11301800F9211248F939F938091080190910901FC
S1130190019690930901809308019F918F910F908C
S11301A00FBE0F901F9018951F920F920FB60F92CB
S11301B011248F939F9380910601909107010196DA
S11301C090930701809306019F918F910F900FBE2A
S11301D00F901F90189580910C0190910D01823021
S11301E0910569F01CF4019741F005C08330910535
S11301F041F0049741F0409A0895419A0895429A33
S11302000895439A0895449A089590910E01809117
S11302100001981312C081E090E0FC01E25FFE4F00
S11302203081FC01E050FF4F2081321308C0019659
S11302308530910591F781E0089580E0089580E08C
S1130240089580911301823049F0833059F0813050
S113025069F420E233E048EC50E008C0459A28E510
S113026032E004C02CEB32E04DE052E080910A0110
S113027090910B014817590714F0459A01C045980D
S113028080910A0190910B018217930724F0109238
S11302900B0110920A01089587B18F6387B988B161
S11302A0807C88B98AB183708AB98BB18C6F8BB921
S11302B0E8E6F0E0808184608083EDE6F0E0808110
S11302C08C6F808384B5826084BDEEE6F0E080812B
S11302D0826080838FE487BDA1E8B0E08C91886060
S11302E08C93EFE6F0E08081826080838AE09DE376
S11302F09093890080938800E1EBF0E08081826034
S11303008083C0E7D0E08881826088838DE9809310
S1130310B3008C9185608C9385B5856085BD8081A3
S1130320876080837894C4E0D1E0809113018230A7
S113033009F454C028F4882351F08130D9F1F7CF5F
S1130340833009F45FC0843009F45FC0F0CF80913A
S113035014018823B1F0E0910C01F0910D0180911A
S11303601401E25FFE4F80830E94EB0080910C0138
S113037090910D01019690930D0180930C011092C0
S1130380140180910C0190910D01059749F40E948C
S11303900501882319F0D093130102C0C0931301FF
S11303A08091060190910701049709F0BECFC09394
S11303B01301BBCF0E94210180911401803209F006
S11303C0B4CFC09313011092140110920B01109238
S11303D00A011092090110920801A7CF0E9421017D
S11303E080911401803209F0A0CFC09313011092C0
S11303F0140110920B0110920A011092090110923B
S1130400080193CF0E94210190CF88B1807C88B9E4
S1130410109209011092080110920B0110920A0126
S11304201092070110920601109214011092130108
S10904307CCFF894FFCF1D
S10904360480800804FFAD
S9030000FC
