:100000000C9434000C9451000C9451000C94510049
:100010000C9451000C9453000C9451000C9451001A
:100020000C9451000C9451000C9451000C949B00C2
:100030000C9451000C9451000C9451000C945100FC
:100040000C9451000C9451000C9451000C945100EC
:100050000C9451000C9451000C9451000C945100DC
:100060000C9451000C94510011241FBECFEFD8E026
:10007000DEBFCDBF11E0A0E0B1E0EEE3F3E002C0EF
:1000800005900D92A630B107D9F721E0A6E0B1E0C6
:1000900001C01D92A431B207E1F70E94FC000C944C
:1000A0009D010C9400001F920F920FB60F92112425
:1000B0002F933F934F935F936F938F939F93EF9300
:1000C000FF9349B180910401482789B180930401CD
:1000D00082E090E050E0E1E0F0E09A01082E02C0FA
:1000E000359527950A94E2F720FF13C029B130E037
:1000F000082E02C0359527950A94E2F720FD09C025
:100100009F01082E02C0220F331F0A94E2F72093AA
:10011000130101968830910501F7FF91EF919F91AE
:100120008F916F915F914F913F912F910F900FBEE3
:100130000F901F9018951F920F920FB60F921124D7
:100140008F939F9380910D0190910E010196909352
:100150000E0180930D019F918F910F900FBE0F9014
:100160001F9018955091060180E090E040E072E009
:1001700061E0FC01E15FFE4F3081FC01E050FF4F88
:100180002081321711F0572F462F019684309105A8
:1001900081F750930601411107C081E08093060169
:1001A00010920E0110920D01089580910D01909111
:1001B0000E01059754F48091090190910A0103976B
:1001C00024F488B18F6088B903C088B1807F88B972
:1001D00080910D0190910E01079769F410920E0124
:1001E00010920D018091090190910A01019690935E
:1001F0000A0180930901089587B18F6287B988B198
:10020000807D88B98AB187748AB98BB1886B8BB9C4
:10021000E8E6F0E0808184608083EDE6F0E08081B4
:10022000886B8083E1E8F0E0808188608083EFE67E
:10023000F0E08081826080838CE196E09093890079
:10024000809388007894C1E8D0E012E080910601A4
:100250008130C9F120F0823009F454C0F9CF809187
:100260001301882339F1E0910B01F0910C01809189
:100270001301E15FFE4F808380910B0190910C018F
:100280008230910549F08330910541F0019711F0DA
:10029000439A05C0429A03C0419A01C0409A809196
:1002A0000B0190910C01019690930C0180930B012E
:1002B0001092130180910B0190910C01049731F67B
:1002C0000E94B200C3CF888185608883459A0E94CE
:1002D000D50080911301803809F0B8CF80910701D3
:1002E00090910801019690930801809307018091F5
:1002F000070190910801029711F4109306011092E2
:100300001301A4CF88818560888388B1807D88B9F6
:1003100010920E0110920D011092130110920A0119
:1003200010920901109208011092070110920C011D
:0E03300010920B011092060189CFF894FFCFB6
:06033E0008108020FF0002
:00000001FF
