:100000000C9434000C9451000C9451000C94510049
:100010000C9451000C9453000C9451000C94D40097
:100020000C9451000C9451000C9451000C94BD00A0
:100030000C9451000C9451000C94A6000C945100A7
:100040000C9451000C9451000C9451000C945100EC
:100050000C9451000C9451000C9451000C945100DC
:100060000C9451000C94510011241FBECFEFD8E026
:10007000DEBFCDBF11E0A0E0B1E0E6E4F3E002C0F6
:1000800005900D92A230B107D9F721E0A2E0B1E0CE
:1000900001C01D92AA30B207E1F70E9404010C943E
:1000A000A1010C9400001F920F920FB60F92112421
:1000B0002F933F934F935F936F937F938F939F9370
:1000C000AF93BF93EF9349B180910001482789B165
:1000D0008093000182E090E070E050E0A1E0B0E0A9
:1000E000E1E09A01082E02C0359527950A94E2F7BF
:1000F00020FF14C029B130E0082E02C035952795A5
:100100000A94E2F720FD0AC09D01082E02C0220FCA
:10011000331F0A94E2F7209308017E2F019688305E
:100120009105F9F6711102C010920801EF91BF918B
:10013000AF919F918F917F916F915F914F913F917F
:100140002F910F900FBE0F901F9018951F920F9236
:100150000FB60F9211248F939F9380910401909179
:100160000501019690930501809304019F918F9161
:100170000F900FBE0F901F9018951F920F920FB601
:100180000F9211248F939F93809106019091070104
:10019000019690930701809306019F918F910F9094
:1001A0000FBE0F901F9018951F920F920FB60F92CF
:1001B00011248F939F9380910201909103010196E6
:1001C00090930301809302019F918F910F900FBE36
:1001D0000F901F90189580910401909105018397CD
:1001E00024F488B1886188B903C088B1877E88B952
:1001F00080910401909105018334910524F01092BF
:10020000050110920401089587B18F6387B988B101
:10021000807C88B98AB183708AB98BB18C6F8BB9B5
:10022000E8E6F0E0808184608083EDE6F0E08081A4
:100230008C6F808384B5826084BDEEE6F0E08081BF
:10024000826080838FE487BDE1E8F0E08081886090
:100250008083EFE6F0E08081826080838AE09DE326
:100260009093890080938800E0EBF0E080818260C9
:100270008083E0E7F0E08081826080838CE9809376
:10028000B3007894E1EBF0E0808187608083C1E87F
:10029000D0E06894FF24F1F801E013E080910901B7
:1002A0008130A9F028F0823029F1833081F1F8CF34
:1002B00080910801843031F0803881F7459A10929E
:1002C0000801ECCF0093090110920801E7CF85B532
:1002D000856085BD88818560888380910801843030
:1002E000E9F2809108018031C9F6F092090110927B
:1002F0000801D4CF0E94EB00809106019091070184
:10030000049714F01093090110920801C7CF85B526
:100310008A7F85BD88818A7F888388B1807C88B9FF
:10032000109205011092040110920701109206012B
:10033000109203011092020110920801109209011B
:06034000ADCFF894FFCFE1
:02034600FF00B6
:00000001FF
