:100000000C9434000C9451000C9451000C94510049
:100010000C9451000C9453000C9451000C9451001A
:100020000C9451000C9451000C9451000C94B200AB
:100030000C9451000C9451000C949B000C945100B2
:100040000C9451000C9451000C9451000C945100EC
:100050000C9451000C9451000C9451000C945100DC
:100060000C9451000C94510011241FBECFEFD8E026
:10007000DEBFCDBF11E0A0E0B1E0E0E6F4E002C0F9
:1000800005900D92AA30B107D9F721E0AAE0B1E0BE
:1000900001C01D92A331B207E1F70E9479010C94CF
:1000A0002E020C9400001F920F920FB60F92112493
:1000B0002F933F934F935F936F938F939F93EF9300
:1000C000FF9349B180910801482789B180930801C5
:1000D00082E090E050E0E1E0F0E09A01082E02C0FA
:1000E000359527950A94E2F720FF13C029B130E037
:1000F000082E02C0359527950A94E2F720FD09C025
:100100009F01082E02C0220F331F0A94E2F72093AA
:10011000110101968830910501F7FF91EF919F91B0
:100120008F916F915F914F913F912F910F900FBEE3
:100130000F901F9018951F920F920FB60F921124D7
:100140008F939F9380910F0190911001019690934E
:10015000100180930F019F918F910F900FBE0F9010
:100160001F9018951F920F920FB60F9211248F9324
:100170009F9380910D0190910E01019690930E0135
:1001800080930D019F918F910F900FBE0F901F9044
:10019000189590910A0181E0892780930A010895BA
:1001A00080911101803119F08032F1F00895809131
:1001B0000D0190910E01181619069CF580910B0106
:1001C00090910C0103974CF480910B0190910C01DC
:1001D000019690930C0180930B0110920E011092E6
:1001E0000D0110921101089580910D0190910E0161
:1001F00018161906B4F480910B0190910C01181691
:1002000019064CF480910B0190910C010197909389
:100210000C0180930B0110920E0110920D011092AF
:1002200011010895E0910B01F0910C01EE0FFF1FF9
:10023000E050FF4F20813181C90163E070E00E94EE
:10024000060240910A01442351F140910F0150915F
:100250001001641775072CF0419A88B1837F88B923
:1002600012C080910F0190911001660F771F6817DF
:1002700079072CF088B1857F88B9429A04C088B18B
:10028000897F88B9439A80910F01909110012817B6
:10029000390771F51092100110920F0108954091E5
:1002A0000F0150911001641775072CF0439A88B123
:1002B000897F88B912C080910F0190911001660F5B
:1002C000771F681779072CF088B1857F88B9429A23
:1002D00004C088B1837F88B9419A80910F019091C1
:1002E00010012817390721F41092100110920F0104
:1002F00008958AB18B748AB98BB1846B8BB987B13D
:100300008E6287B988B1817D88B9E8E6F0E08081A6
:1003100084608083EDE6F0E08081846B808384B527
:10032000826084BDEEE6F0E08081826080838FE4AD
:1003300087BDE0E8F0E0808188608083EFE6F0E050
:100340008081826080838AE09DE39093890080931E
:1003500088007894C1E8D0E002E011E080911201B9
:10036000813091F018F08230D9F1FACF459A80911E
:100370001101803121F080911101803211F410932C
:10038000120110921101EACF85B5856085BD888183
:10039000856088830E94120180911101803121F0D3
:1003A00080911101803211F40E94D00080911101DE
:1003B000803869F480910D0190910E01181619068C
:1003C00014F40E94C90010920E0110920D011092B7
:1003D000110180911101843009F600931201BECF02
:1003E00085B58A7F85BD88818A7F888388B1817D34
:1003F00088B91092100110920F0110920E01109204
:100400000D011092110110921201A8CF97FB072E37
:1004100016F4009407D077FD09D00E941A0207FC59
:1004200005D03EF4909581959F4F08957095619504
:100430007F4F0895AA1BBB1B51E107C0AA1FBB1F1A
:10044000A617B70710F0A61BB70B881F991F5A9560
:10045000A9F780959095BC01CD010895F894FFCF40
:0A0460008403EE0258022C01FF0095
:00000001FF
