:100000000C9434000C9451000C9451000C94510049
:100010000C9451000C9453000C9451000C9451001A
:100020000C9451000C9451000C9451000C94B200AB
:100030000C9451000C9451000C949B000C945100B2
:100040000C9451000C9451000C9451000C945100EC
:100050000C9451000C9451000C9451000C945100DC
:100060000C9451000C94510011241FBECFEFD8E026
:10007000DEBFCDBF11E0A0E0B1E0E4E4F4E002C0F7
:1000800005900D92AA30B107D9F721E0AAE0B1E0BE
:1000900001C01D92A331B207E1F70E9437010C9411
:1000A00020020C9400001F920F920FB60F921124A1
:1000B0002F933F934F935F936F938F939F93EF9300
:1000C000FF9349B180910801482789B180930801C5
:1000D00082E090E050E0E1E0F0E09A01082E02C0FA
:1000E000359527950A94E2F720FF13C029B130E037
:1000F000082E02C0359527950A94E2F720FD09C025
:100100009F01082E02C0220F331F0A94E2F72093AA
:10011000120101968830910501F7FF91EF919F91AF
:100120008F916F915F914F913F912F910F900FBEE3
:100130000F901F9018951F920F920FB60F921124D7
:100140008F939F9380910C0190910D010196909354
:100150000D0180930C019F918F910F900FBE0F9016
:100160001F9018951F920F920FB60F9211248F9324
:100170009F9380911001909111010196909311012C
:10018000809310019F918F910F900FBE0F901F9041
:100190001895E0910E01F0910F01EE0FFF1FE05056
:1001A000FF4F20813181C90163E070E00E94F801B6
:1001B00040910B01442351F140910C0150910D01EC
:1001C000641775072CF0419A88B1837F88B912C0F3
:1001D00080910C0190910D01660F771F68177907C8
:1001E0002CF0429A88B1857F88B904C0439A88B1BF
:1001F000897F88B980910C0190910D018217930736
:1002000074F110920D0110920C01089540910C01AF
:1002100050910D01641775072CF0439A88B1897FBE
:1002200088B912C080910C0190910D01660F771F63
:10023000681779072CF0429A88B1857F88B904C085
:10024000419A88B1837F88B980910C0190910D010A
:100250008217930724F010920D0110920C0108955B
:1002600090910B0181E0892780930B01089587B15C
:100270008F6387B988B1807C88B98AB183708AB965
:100280008BB18C6F8BB9E8E6F0E08081846080836D
:10029000EDE6F0E080818C6F808384B5826084BD60
:1002A000EEE6F0E08081826080838FE487BDE1E844
:1002B000F0E0808188608083AFE6B0E08C9182605E
:1002C0008C938AE09DE390938900809388008081DD
:1002D0008560808385B5856085BD789402E011E0F6
:1002E000C1E8D0E080910A01813089F020F08230AD
:1002F00009F468C0F9CF459A80911201803121F04C
:1003000080911201803271F710930A01EBCF0E94A5
:10031000C900809112018031D9F48091100190912F
:100320001101181619069CF580910E0190910F018C
:1003300003974CF480910E0190910F0101969093D8
:100340000F0180930E0110921101109210011FC035
:10035000809112018032D9F48091100190911101A5
:1003600018161906A4F480910E0190910F01181629
:1003700019064CF480910E0190910F010197909312
:100380000F0180930E0110921101109210018091C3
:100390001201803879F480911001909111011816A2
:1003A000190634F40E9430011092110110921001CC
:1003B0001092120180911201843009F093CF0093C2
:1003C0000A0190CF88818A7F888385B58A7F85BD21
:1003D00088B1807C88B910920D0110920C011092A6
:1003E0001101109210011092120110920A017ACF9D
:1003F00097FB072E16F4009407D077FD09D00E94D2
:100400000C0207FC05D03EF4909581959F4F08950E
:10041000709561957F4F0895AA1BBB1B51E107C0E2
:10042000AA1FBB1FA617B70710F0A61BB70B881F84
:10043000991F5A95A9F780959095BC01CD01089513
:04044000F894FFCF5E
:0A0444008403EE0258022C01FF00B1
:00000001FF
