S01700004763634170706C69636174696F6E312E737265635B
S11300000C9434000C9451000C9451000C94510045
S11300100C9451000C9453000C9451000C94D40093
S11300200C9451000C9451000C9451000C94BD009C
S11300300C9451000C9451000C94A6000C945100A3
S11300400C9451000C9451000C9451000C945100E8
S11300500C9451000C9451000C9451000C945100D8
S11300600C9451000C94510011241FBECFEFD8E022
S1130070DEBFCDBF11E0A0E0B1E0E4E7F3E002C0F1
S113008005900D92A230B107D9F721E0A2E0B1E0CA
S113009001C01D92AA30B207E1F70E9415010C9429
S11300A0B8010C9400001F920F920FB60F92112406
S11300B02F933F934F935F936F937F938F939F936C
S11300C0AF93BF93EF9349B180910001482789B161
S11300D08093000182E090E070E050E0A1E0B0E0A5
S11300E0E1E09A01082E02C0359527950A94E2F7BB
S11300F020FF14C029B130E0082E02C035952795A1
S11301000A94E2F720FD0AC09D01082E02C0220FC6
S1130110331F0A94E2F7209308017E2F019688305A
S11301209105F9F6711102C010920801EF91BF9187
S1130130AF919F918F917F916F915F914F913F917B
S11301402F910F900FBE0F901F9018951F920F9232
S11301500FB60F9211248F939F9380910601909173
S11301600701019690930701809306019F918F9157
S11301700F900FBE0F901F9018951F920F920FB6FD
S11301800F9211248F939F93809104019091050104
S1130190019690930501809304019F918F910F9094
S11301A00FBE0F901F9018951F920F920FB60F92CB
S11301B011248F939F9380910201909103010196E2
S11301C090930301809302019F918F910F900FBE32
S11301D00F901F9018958091060190910701C39785
S11301E014F4459A01C04598809106019091070145
S11301F08639910521F410920701109206010895A1
S11302008091060190910701C39714F4409A01C0AC
S1130210409880910601909107018436910521F45C
S11302201092070110920601089587B1896287B977
S113023088B1867D88B98AB18B768AB98BB1846995
S11302408BB9E8E6F0E0808184608083EDE6F0E03D
S113025080818469808384B5826084BDEEE6F0E0A9
S11302608081826080838FE487BDE1E8F0E0808153
S113027088608083EFE6F0E080818260808389E09B
S11302809DE39093890080938800E0EBF0E0808107
S113029082608083E0E7F0E08081826080838DE982
S11302A08093B3007894E1EBF0E0808187608083F1
S11302B0C1E8D0E012E001E080910901813059F1F8
S11302C018F08230D9F1FACF85B5856085BD888173
S11302D085608883809108018031D9F0803869F085
S11302E08430C9F40E94EB008091040190910501CF
S11302F0089789F4109309010EC08091020190912E
S11303000301853F91401CF40E94000104C0409AFF
S113031002C00093090185B5856085BD888185602B
S1130320888388B18E7D88B9439A80910401909125
S113033005010F9709F610930901BECF85B58A7F91
S113034085BD88818A7F888388B1867D88B910922B
S113035007011092060110920501109204011092F7
S11303600301109202011092080110920901A4CF16
S1070370F894FFCF2B
S1050374FF0084
S9030000FC
