:100000000C9434000C9451000C9451000C94510049
:100010000C9451000C9453000C9451000C9451001A
:100020000C9451000C9451000C9451000C949B00C2
:100030000C9451000C9451000C9451000C945100FC
:100040000C9451000C9451000C9451000C945100EC
:100050000C9451000C9451000C9451000C945100DC
:100060000C9451000C94510011241FBECFEFD8E026
:10007000DEBFCDBF11E0A0E0B1E0E2E2F3E002C0FC
:1000800005900D92A630B107D9F721E0A6E0B1E0C6
:1000900001C01D92A331B207E1F70E94FC000C944D
:1000A0008F010C9400001F920F920FB60F92112433
:1000B0002F933F934F935F936F938F939F93EF9300
:1000C000FF9349B180910401482789B180930401CD
:1000D00082E090E050E0E1E0F0E09A01082E02C0FA
:1000E000359527950A94E2F720FF13C029B130E037
:1000F000082E02C0359527950A94E2F720FD09C025
:100100009F01082E02C0220F331F0A94E2F72093AA
:10011000110101968830910501F7FF91EF919F91B0
:100120008F916F915F914F913F912F910F900FBEE3
:100130000F901F9018951F920F920FB60F921124D7
:100140008F939F938091080190910901019690935C
:100150000901809308019F918F910F900FBE0F901E
:100160001F9018955091120180E090E040E072E0FD
:1001700061E0FC01E35FFE4F3081FC01E050FF4F86
:100180002081321711F0572F462F019684309105A8
:1001900081F750931201411107C081E08093120151
:1001A0001092090110920801089580910801909120
:1001B0000901059754F48091060190910701039776
:1001C00024F488B18F6088B903C088B1807F88B972
:1001D0008091080190910901079769F41092090133
:1001E0001092080180910601909107010196909369
:1001F000070180930601089587B18F6287B988B19E
:10020000807D88B98AB187748AB98BB1886B8BB9C4
:10021000E8E6F0E0808184608083EDE6F0E08081B4
:10022000886B8083E1E8F0E0808188608083EFE67E
:10023000F0E08081826080838CE196E09093890079
:10024000809388007894C1E8D0E012E08091120198
:100250008130C9F120F0823009F44EC0F9CF80918D
:100260001101882339F1E0910A01F0910B0180918D
:100270001101E35FFE4F808380910A0190910B0191
:100280008230910549F08330910521F0019731F0DA
:10029000409A05C0439A03C0429A01C0419A809196
:1002A0000A0190910B01019690930B0180930A0132
:1002B0001092110180910A0190910B01049731F67F
:1002C0000E94B200C3CF888185608883459A0E94CE
:1002D000D50080911101803809F0B8CF80910C01D0
:1002E0008F5F80930C0180910C01823011F4109388
:1002F000120110921101AACF88818A7F888388B168
:10030000807D88B910920B0110920A0110920901A8
:1003100010920801109211011092120197CFF894D7
:02032000FFCF0D
:0603220008201020FF007E
:00000001FF
