S0190000706F727461206D6F746F72697A7A6174612E7372656301
S11300000C9434000C9451000C9451000C94510045
S11300100C9451000C9453000C9451000C94510016
S11300200C9451000C9451000C9451000C94BD009C
S11300300C9451000C9451000C94A6000C945100A3
S11300400C9451000C9451000C9451000C945100E8
S11300500C9451000C9451000C9451000C945100D8
S11300600C9451000C94510011241FBECFEFD8E022
S1130070DEBFCDBF11E0A0E0B1E0E4E2F3E002C0F6
S113008005900D92A630B107D9F721E0A6E0B1E0C2
S113009001C01D92A331B207E1F70E9406010C943E
S11300A090010C9400001F920F920FB60F9211242E
S11300B02F933F934F935F936F937F938F939F936C
S11300C0AF93BF93EF9349B180910501482789B15C
S11300D08093050182E090E070E050E0A1E0B0E0A0
S11300E0E1E09A01082E02C0359527950A94E2F7BB
S11300F020FF14C029B130E0082E02C035952795A1
S11301000A94E2F720FD0AC09D01082E02C0220FC6
S1130110331F0A94E2F7209312017E2F0196883050
S11301209105F9F6711102C010921201EF91BF917D
S1130130AF919F918F917F916F915F914F913F917B
S11301402F910F900FBE0F901F9018951F920F9232
S11301500FB60F9211248F939F9380910801909171
S11301600901019690930901809308019F918F9151
S11301700F900FBE0F901F9018951F920F920FB6FD
S11301800F9211248F939F93809106019091070100
S1130190019690930701809306019F918F910F9090
S11301A00FBE0F901F90189580910A0190910B013A
S11301B08230910549F08330910541F0019711F0A7
S11301C0409A05C0419A03C0439A01C0449A1092D0
S11301D01201089590910C0180910001981312C0AE
S11301E081E090E0FC01E45FFE4F3081FC01E050CF
S11301F0FF4F2081321308C001968530910591F795
S113020081E0089580E0089580E0089587B18F63C8
S113021087B988B1807C88B98AB183708AB98BB177
S11302208C6F8BB9E8E6F0E0808184608083EDE632
S1130230F0E080818C6F808384B5826084BDEEE6BB
S1130240F0E08081826080838CE987BDE1E8F0E0A2
S1130250808188608083EFE6F0E080818260808323
S113026089E09DE39093890080938800789412E05C
S113027001E0C1EBD0E0809111018130F1F118F07F
S11302808230E9F1FACF809112018823D1F0E09114
S11302900A01F0910B0180911201E45FFE4F80830B
S11302A00E94D40080910A0190910B0101969093D1
S11302B00B0180930A01109212011092070110920F
S11302C0060180910A0190910B01059759F40E944F
S11302D0EA000093110185B5856085BD888187603A
S11302E0888302C010931101809106019091070147
S11302F0049709F610931101BECF459ABCCF109212
S11303001201109207011092060110920901109235
S1130310080110920B0110920A0110921101ABCF47
S1070320F894FFCF7B
S10903240480800804FFC0
S9030000FC
