S01800006D61636368696E6120636166666520322E7372656371
S11300000C9434000C9451000C9451000C94510045
S11300100C9451000C9453000C9451000C94D40093
S11300200C9451000C9451000C9451000C94BD009C
S11300300C9451000C9451000C94A6000C945100A3
S11300400C9451000C9451000C9451000C945100E8
S11300500C9451000C9451000C9451000C945100D8
S11300600C9451000C94510011241FBECFEFD8E022
S1130070DEBFCDBF11E0A0E0B1E0E2E0F4E002C0F9
S113008005900D92A230B107D9F721E0A2E0B1E0CA
S113009001C01D92AC30B207E1F70E944C010C94F0
S11300A0FF010C9400001F920F920FB60F921124BF
S11300B02F933F934F935F936F937F938F939F936C
S11300C0AF93BF93EF9349B180910001482789B161
S11300D08093000182E090E070E050E0A1E0B0E0A5
S11300E0E1E09A01082E02C0359527950A94E2F7BB
S11300F020FF14C029B130E0082E02C035952795A1
S11301000A94E2F720FD0AC09D01082E02C0220FC6
S1130110331F0A94E2F720930B017E2F0196883057
S11301209105F9F6711102C010920B01EF91BF9184
S1130130AF919F918F917F916F915F914F913F917B
S11301402F910F900FBE0F901F9018951F920F9232
S11301500FB60F9211248F939F9380910801909171
S11301600901019690930901809308019F918F9151
S11301700F900FBE0F901F9018951F920F920FB6FD
S11301800F9211248F939F93809106019091070100
S1130190019690930701809306019F918F910F9090
S11301A00FBE0F901F9018951F920F920FB60F92CB
S11301B011248F939F9380910401909105010196DE
S11301C090930501809304019F918F910F900FBE2E
S11301D00F901F9018958091080190910901843423
S11301E0910514F4409A0CC0809108019091090182
S11301F0873891051CF4419A409802C0429A41986C
S11302008091080190910901883C910524F0109295
S1130210090110920801089580910401909105014B
S1130220813991403CF484E090E090930301809301
S1130230020108958091040190910501893592404D
S11302403CF486E090E090930301809302010895CA
S11302508091040190910501883592401CF083E05F
S113026080930A0108958091080190910901839770
S113027024F488B1886188B903C088B1877E88B9BD
S113028080910801909109018334910524F0109222
S1130290090110920801089587B18F6387B988B165
S11302A0807C88B98AB18B768AB98BB184698BB921
S11302B0E8E6F0E0808184608083EDE6F0E0808110
S11302C08469808384B5826084BDEEE6F0E0808139
S11302D0826080838FE487BDE1E8F0E080818860FC
S11302E08083AFE6B0E08C9182608C938AE09DE3DA
S11302F09093890080938800A0EBB0E08C91826099
S11303008C93A0E7B0E08C9182608C938CE980930D
S1130310B300789485B5856085BD808185608083D0
S1130320E1EBF0E080818760808302E011E00F2E32
S1130330F3E0FF2EF02DC1E8D0E080910A01813076
S1130340B1F028F0823061F18330D9F1F8CF809197
S11303500B01803819F4459A10920B0180910B011E
S1130360843059F710930A0110920B01E6CF809163
S11303700B01843071F40E94EB000E940C01109276
S11303800B011092030110920201109205011092C8
S1130390040180910B01803181F600930A01CDCFD5
S11303A080910B01803149F68091060190910701FB
S11303B0049721F40E943301F0920A0110920B0178
S11303C0BCCF85B58A7F85BD88818A7F888388B1C3
S11303D0807C88B910920B011092050110920401DF
S11303E01092030110920201109209011092080167
S11303F0109207011092060110920A019ECFF89400
S1050400FFCF28
S1050402FF00F5
S9030000FC
