:100000000C9434000C9451000C9451000C94510049
:100010000C9451000C9490000C9451000C945100DD
:100020000C9451000C9451000C9451000C94FA0063
:100030000C9451000C9451000C94E3000C9451006A
:100040000C9451000C9451000C9451000C945100EC
:100050000C9451000C9451000C9451000C945100DC
:100060000C9451000C94510011241FBECFEFD8E026
:10007000DEBFCDBF11E0A0E0B1E0E6E2F2E002C0F9
:1000800005900D92A230B107D9F721E0A2E0B1E0CE
:1000900001C01D92A830B207E1F70E9453000C94F2
:1000A00011010C94000087B18F6387B988B1807CFF
:1000B00088B98AB18B768AB98BB184698BB9E8E645
:1000C000F0E0808184608083EDE6F0E080818469E7
:1000D000808384B5826084BDEEE6F0E0808182603A
:1000E00080838FE487BDE1E8F0E0808188608083D1
:1000F000EFE6F0E08081826080838AE09DE3909368
:100100008900809388007894809106018111FECF48
:1001100080910701803809F4459A10920701F4CFC5
:100120001F920F920FB60F9211242F933F934F936C
:100130005F936F937F938F939F93AF93BF93EF934F
:1001400049B180910001482789B18093000182E084
:1001500090E070E050E0A1E0B0E0E1E09A01082E0C
:1001600002C0359527950A94E2F720FF14C029B103
:1001700030E0082E02C0359527950A94E2F720FD5D
:100180000AC09D01082E02C0220F331F0A94E2F715
:10019000209307017E2F019688309105F9F67111A1
:1001A00002C010920701EF91BF91AF919F918F9183
:1001B0007F916F915F914F913F912F910F900FBE63
:1001C0000F901F9018951F920F920FB60F92112447
:1001D0008F939F93809104019091050101969093D4
:1001E0000501809304019F918F910F900FBE0F9096
:1001F0001F9018951F920F920FB60F9211248F9394
:100200009F938091020190910301019690930301C5
:10021000809302019F918F910F900FBE0F901F90BE
:060220001895F894FFCFD1
:02022600FF00D7
:00000001FF
