S01700004763634170706C69636174696F6E312E737265635B
S11300000C943B000C9458000C9458000C94580029
S11300100C9458000C945A000C9458000C94DB0077
S11300200C9458000C9458000C9458000C94C40080
S11300300C9458000C9458000C94AD000C94580087
S11300400C9458000C9458000C9458000C945800CC
S11300500C9458000C9458000C9458000C945800BC
S11300600C9458000C94580002011301240135012A
S113007046015701680111241FBECFEFD8E0DEBF4F
S1130080CDBF11E0A0E0B1E0E8EFF4E002C00590DC
S11300900D92A230B107D9F721E0A2E0B1E001C08E
S11300A01D92A031B207E1F70E94DC010C947A02A0
S11300B00C9400001F920F920FB60F9211242F93ED
S11300C03F934F935F936F937F938F939F93AF93DC
S11300D0BF93EF9349B180910001482789B1809380
S11300E0000182E090E070E050E0A1E0B0E0E1E0E7
S11300F09A01082E02C0359527950A94E2F720FF4D
S113010014C029B130E0082E02C0359527950A9411
S1130110E2F720FD0AC09D01082E02C0220F331F02
S11301200A94E2F720930E017E2F01968830910500
S1130130F9F6711102C010920E01EF91BF91AF91C7
S11301409F918F917F916F915F914F913F912F91EB
S11301500F900FBE0F901F9018951F920F920FB61D
S11301600F9211248F939F9380910C0190910D0114
S1130170019690930D0180930C019F918F910F90A4
S11301800FBE0F901F9018951F920F920FB60F92EB
S113019011248F939F9380910A0190910B010196F2
S11301A090930B0180930A019F918F910F900FBE42
S11301B00F901F9018951F920F920FB60F92112453
S11301C08F939F93809108019091090101969093D8
S11301D00901809308019F918F910F900FBE0F909A
S11301E01F901895E0910601F09107013197E730CF
S11301F0F10520F4EC5CFF4F0C94740288B1887F05
S113020088B90895409A88B1897F88B98AE090E0D6
S1130210909305018093040184E690E09093030198
S1130220809302010895419A88B18A7F88B984E154
S113023090E0909305018093040184E690E090930C
S1130240030180930201089588B1836088B94298BC
S113025088E290E0909305018093040184E690E0A5
S113026090930301809302010895429A88B18C7F90
S113027088B989E190E0909305018093040182E3B9
S113028090E09093030180930201089588B1856002
S113029088B9419883E290E090930501809304012A
S11302A082E390E0909303018093020108954098C3
S11302B088B1866088B98DE290E0909305018093BF
S11302C0040182E390E09093030180930201089576
S11302D088B1876088B9089580910E01843019F03F
S11302E08830E1F0089580910801909109018436E5
S11302F0910579F510920901109208018091060187
S11303009091070107972CF58091060190910701C0
S11303100196909307018093060108958091080146
S11303209091090184369105A1F41092090110926B
S113033008018091060190910701181619064CF4E2
S11303408091060190910701019790930701809392
S1130350060108958091060190910701892B19F4F3
S1130360449A459808958091060190910701079752
S113037019F4459A4498089520910C0130910D0187
S11303808091040190910501821793071CF0449A0F
S1130390459802C0459A449820910C0130910D0172
S11303A080910201909103012817390721F41092DA
S11303B00D0110920C01089587B18F6387B988B13C
S11303C0807C88B98AB183708AB98BB18C6F8BB900
S11303D0E8E6F0E0808184608083EDE6F0E08081EF
S11303E08C6F808384B5826084BDEEE6F0E080810A
S11303F0826080839DE997BDE1E8F0E080818860B8
S11304008083EFE6F0E08081826080832AE03DE330
S11304103093890020938800E0EBF0E080818260D3
S11304208083E0E7F0E08081826080839093B30072
S1130430E1EBF0E0808187608083789412E0C1E88A
S1130440D0E001E080910F018130B9F018F08230E2
S113045029F1FACF85B5856085BD8881856088835B
S11304600E94F2000E946C0180910E01803851F7C5
S113047000930F0110920E01E5CF0E94AA01809112
S11304800A0190910B01409721F080910E01803177
S1130490C9F610930F0110920E01D4CF85B58A7F4F
S11304A085BD88818A7F888388B1807C88B91092D1
S11304B00D0110920C0110920B0110920A0110927E
S11304C0090110920801109207011092060110927E
S11304D00E01109203011092020110920501109274
S11304E0040110920F01AECFEE0FFF1F0590F4919F
S10B04F0E02D0994F894FFCFFC
S10504F8FF00FF
S9030000FC
