:100000000C943B000C9458000C9458000C9458002D
:100010000C9458000C945A000C9458000C94DB007B
:100020000C9458000C9458000C9458000C94C40084
:100030000C9458000C9458000C94AD000C9458008B
:100040000C9458000C9458000C9458000C945800D0
:100050000C9458000C9458000C9458000C945800C0
:100060000C9458000C9458009A018901780167019A
:1000700056014501410111241FBECFEFD8E0DEBF7C
:10008000CDBF11E0A0E0B1E0EEEFF4E002C00590DA
:100090000D92A230B107D9F721E0A2E0B1E001C092
:1000A0001D92A031B207E1F70E94E1010C947D029C
:1000B0000C9400001F920F920FB60F9211242F93F1
:1000C0003F934F935F936F937F938F939F93AF93E0
:1000D000BF93EF9349B180910001482789B1809384
:1000E000000182E090E070E050E0A1E0B0E0E1E0EB
:1000F0009A01082E02C0359527950A94E2F720FF51
:1001000014C029B130E0082E02C0359527950A9415
:10011000E2F720FD0AC09D01082E02C0220F331F06
:100120000A94E2F720930F017E2F01968830910503
:10013000F9F6711102C010920F01EF91BF91AF91CA
:100140009F918F917F916F915F914F913F912F91EF
:100150000F900FBE0F901F9018951F920F920FB621
:100160000F9211248F939F9380910C0190910D0118
:10017000019690930D0180930C019F918F910F90A8
:100180000FBE0F901F9018951F920F920FB60F92EF
:1001900011248F939F9380910A0190910B010196F6
:1001A00090930B0180930A019F918F910F900FBE46
:1001B0000F901F9018951F920F920FB60F92112457
:1001C0008F939F93809108019091090101969093DC
:1001D0000901809308019F918F910F900FBE0F909E
:1001E0001F90189580910F018430F1F08830B9F597
:1001F000809108019091090184369105A1F5109232
:1002000009011092080180910601909107011816CA
:1002100019064CF580910601909107010197909382
:1002200007018093060108958091080190910901CA
:1002300084369105C1F41092090110920801809151
:10024000060190910701079774F48091060190913F
:10025000070101969093070180930601089510927B
:100260000901109208010895E0910601F09107013B
:100270003197E730F10508F06EC0EC5CFF4F0C944D
:10028000770288B1876088B90895409888B1866000
:1002900088B98DE290E0909305018093040182E398
:1002A00090E090930301809302010895419888B1F2
:1002B000856088B983E290E0909305018093040102
:1002C00082E390E09093030180930201089588B146
:1002D0008C7F88B9429A89E190E0909305018093E0
:1002E000040182E390E0909303018093020108955A
:1002F000429888B1836088B988E290E090930501C4
:100300008093040184E690E09093030180930201BE
:10031000089588B18A7F88B9419A84E190E09093EA
:1003200005018093040184E690E09093030180939B
:100330000201089588B1897F88B9409A8AE090E0E7
:10034000909305018093040184E690E0909303016B
:1003500080930201089588B1887F88B908958091BB
:10036000060190910701892B19F4449A4598089544
:100370008091060190910701079719F4459A4498D6
:10038000089520910C0130910D018091040190910C
:100390000501821793071CF0459A449802C0449ABD
:1003A000459820910C0130910D01809102019091AE
:1003B00003012817390721F410920D0110920C0146
:1003C00008958AB183768AB98BB18C698BB987B16C
:1003D000876387B988B1887C88B9E8E6F0E08081D6
:1003E00084608083EDE6F0E080818C69808384B551
:1003F000826084BDEFE6F0E08081826080839DE9C9
:1004000097BDA1E8B0E08C9188608C938081826078
:1004100080832AE03DE33093890020938800E0EB5D
:10042000F0E0808182608083E0E7F0E0808182609C
:1004300080839093B300E1EBF0E08081876080835C
:10044000789412E0C1E8D0E001E080910E018130A3
:10045000B9F018F0823029F1FACF0E9434010E94DD
:10046000F20080910F01803881F785B5856085BDE8
:1004700088818560888300930E0110920F01E5CF7B
:100480000E94AF0180910A0190910B01409721F0E9
:1004900080910F018031C9F610930E0110920F0167
:1004A000D4CF85B58A7F85BD88818A7F888388B1CE
:1004B000887C88B910920B0110920A0110920D01EC
:1004C00010920C011092090110920801109207017C
:1004D0001092060110920F01109205011092040172
:1004E000109203011092020110920E01AECFEE0F96
:0E04F000FF1F0590F491E02D0994F894FFCFC2
:0204FE00FF00FD
:00000001FF
