:100000000C9434000C9451000C9451000C94510049
:100010000C9451000C9453000C9451000C94D40097
:100020000C9451000C9451000C9451000C94BD00A0
:100030000C9451000C9451000C94A6000C945100A7
:100040000C9451000C9451000C9451000C945100EC
:100050000C9451000C9451000C9451000C945100DC
:100060000C9451000C94510011241FBECFEFD8E026
:10007000DEBFCDBF11E0A0E0B1E0E8EBF3E002C0ED
:1000800005900D92A230B107D9F721E0A2E0B1E0CE
:1000900001C01D92AA30B207E1F70E9420010C9422
:1000A000DA010C9400001F920F920FB60F921124E8
:1000B0002F933F934F935F936F937F938F939F9370
:1000C000AF93BF93EF9349B180910001482789B165
:1000D0008093000182E090E070E050E0A1E0B0E0A9
:1000E000E1E09A01082E02C0359527950A94E2F7BF
:1000F00020FF14C029B130E0082E02C035952795A5
:100100000A94E2F720FD0AC09D01082E02C0220FCA
:10011000331F0A94E2F7209309017E2F019688305D
:100120009105F9F6711102C010920901EF91BF918A
:10013000AF919F918F917F916F915F914F913F917F
:100140002F910F900FBE0F901F9018951F920F9236
:100150000FB60F9211248F939F9380910601909177
:100160000701019690930701809306019F918F915B
:100170000F900FBE0F901F9018951F920F920FB601
:100180000F9211248F939F93809104019091050108
:10019000019690930501809304019F918F910F9098
:1001A0000FBE0F901F9018951F920F920FB60F92CF
:1001B00011248F939F9380910201909103010196E6
:1001C00090930301809302019F918F910F900FBE36
:1001D0000F901F90189580910601909107018B3F19
:1001E000910514F4459A01C04598809106019091BB
:1001F00007018E3E924024F01092070110920601F2
:100200008091040190910501089719F483E080938F
:100210000801089580910601909107018B3F910597
:1002200014F4409A01C04098809106019091070112
:10023000843F914024F01092070110920601089526
:1002400087B1896287B988B1867D88B98AB18B7692
:100250008AB98BB184698BB9E8E6F0E0808184606B
:100260008083EDE6F0E080818469808384B58260DC
:1002700084BDEEE6F0E08081826080838FE487BDFC
:10028000E1E8F0E0808188608083AFE6B0E08C91A7
:1002900082608C9389E09DE390938900809388002D
:1002A000A0EBB0E08C9182608C93A0E7B0E08C91E1
:1002B00082608C938DE98093B300789485B58560D6
:1002C00085BD808185608083E1EBF0E0808187607F
:1002D00080836894FF24F1F811E003E0C1E8D0E0E6
:1002E00080910801813059F130F08230D9F18330AA
:1002F00009F446C0F7CF80910901843029F41093A6
:10030000080110920901ECCF80910901803849F46D
:100310008091020190910301069714F70E940A014F
:10032000DFCF409A10930801109209011092070143
:10033000109206011092050110920401D1CF0E9483
:10034000EB0080910901803159F6F092080110927A
:1003500009011092070110920601109205011092F6
:100360000401BECF88B18E7D88B9439A8091040183
:10037000909105010F9709F0B3CF00930801B0CF1A
:1003800085B58A7F85BD88818A7F888388B1867D8F
:1003900088B910920701109206011092050110927F
:1003A00004011092090110920301109202011092AF
:0803B000080196CFF894FFCF7D
:0203B800FF0044
:00000001FF
