S01700004763634170706C69636174696F6E312E737265635B
S11300000C9434000C9451000C9451000C94510045
S11300100C9451000C9453000C9451000C94510016
S11300200C9451000C9451000C9451000C94B200A7
S11300300C9451000C9451000C949B000C945100AE
S11300400C9451000C9451000C9451000C945100E8
S11300500C9451000C9451000C9451000C945100D8
S11300600C9451000C94510011241FBECFEFD8E022
S1130070DEBFCDBF11E0A0E0B1E0E0EAF4E002C0F1
S113008005900D92A230B107D9F721E0A2E0B1E0CA
S113009001C01D92AA30B207E1F70E947C010C94C2
S11300A04E020C9400001F920F920FB60F9211246F
S11300B02F933F934F935F936F938F939F93EF93FC
S11300C0FF9349B180910001482789B180930001D1
S11300D082E090E050E0E1E0F0E09A01082E02C0F6
S11300E0359527950A94E2F720FF13C029B130E033
S11300F0082E02C0359527950A94E2F720FD09C021
S11301009F01082E02C0220F331F0A94E2F72093A6
S1130110080101968830910501F7FF91EF919F91B5
S11301208F916F915F914F913F912F910F900FBEDF
S11301300F901F9018951F920F920FB60F921124D3
S11301408F939F938091060190910701019690935C
S11301500701809306019F918F910F900FBE0F901E
S11301601F9018951F920F920FB60F9211248F9320
S11301709F9380910401909105010196909305014C
S1130180809304019F918F910F900FBE0F901F9049
S1130190189580910201909103018230910581F0BC
S11301A01CF4019749F005C08330910569F0049768
S11301B079F010920901089581E08093090108956E
S11301C082E080930901089583E0809309010895F2
S11301D084E0809309010895809108018430B1F08E
S11301E0883041F5809102019091030104975CF4F9
S11301F080910201909103010196909303018093F1
S113020002010E94C9001092080108958091020120
S113021090910301181619065CF4809102019091E3
S11302200301019790930301809302010E94C90086
S1130230109208010895E0910601F09107013697A4
S113024024F498B1892B88B904C098B18095892386
S113025088B98091060190910701449721F4109286
S113026007011092060180910601909107010B97F6
S113027024F488B1682B68B904C088B160956823F8
S113028068B98091060190910701449721F4109276
S11302900701109206018091060190910701409791
S11302A024F488B1482B48B904C088B14095482348
S11302B048B98091060190910701449721F4109266
S11302C0070110920601809106019091070145975C
S11302D024F488B1282B28B904C088B12095282398
S11302E028B98091060190910701449721F4109256
S11302F0070110920601089587B18E6187B988B10C
S1130300817E88B98AB183778AB98BB18C688BB9BD
S1130310E8E6F0E0808184608083EDE6F0E08081AF
S11303208C68808384B5826084BDEEE6F0E08081D1
S1130330826080838FE487BDE0E8F0E0808188609C
S11303408083EFE6F0E08081826080838AE09DE331
S113035090938900809388007894C1E8D0E015E0F8
S113036080910901823061F128F4882359F08130A9
S113037061F0F8CF843009F45BC0F0F1853009F402
S113038073C0F0CF0E94EC00EBCF85B5856085BDCE
S11303908881856088830E94EC0020E040E060E072
S11303A082E00E941B0180910801803831F0809125
S11303B00401909105010A9799F610930901D0CF91
S11303C085B5856085BD8881856088830E94EC0041
S11303D020E040E064E082E00E941B01809108017B
S11303E0803839F080910401909105010A9709F051
S11303F0B7CF10930901B4CF85B5856085BD8881D9
S1130400856088830E94EC0020E048E064E082E09C
S11304100E941B0180910801803839F08091040109
S1130420909105010A9709F09BCF1093090198CF89
S113043085B5856085BD8881856088830E94EC00D0
S113044020E148E064E082E00E941B018091080101
S1130450803839F080910401909105010A9709F0E0
S11304607FCF109309017CCF85B58E7F85BD8881B0
S11304708E7F888388B1817E88B91092070110929B
S113048006011092050110920401109208011092C5
S11304900301109202011092090162CFF894FFCF78
S10504A0FF0057
S9030000FC
