S01700004763634170706C69636174696F6E312E737265635B
S11300000C9434000C9451000C9451000C94510045
S11300100C9451000C9453000C9451000C94510016
S11300200C9451000C9451000C9451000C94B200A7
S11300300C9451000C9451000C949B000C945100AE
S11300400C9451000C9451000C9451000C945100E8
S11300500C9451000C9451000C9451000C945100D8
S11300600C9451000C94510011241FBECFEFD8E022
S1130070DEBFCDBF11E0A0E0B1E0EEE4F4E002C0E9
S113008005900D92AA30B107D9F721E0AAE0B1E0BA
S113009001C01D92A331B207E1F70E9477010C94CD
S11300A025020C9400001F920F920FB60F92112498
S11300B02F933F934F935F936F938F939F93EF93FC
S11300C0FF9349B180910801482789B180930801C1
S11300D082E090E050E0E1E0F0E09A01082E02C0F6
S11300E0359527950A94E2F720FF13C029B130E033
S11300F0082E02C0359527950A94E2F720FD09C021
S11301009F01082E02C0220F331F0A94E2F72093A6
S1130110110101968830910501F7FF91EF919F91AC
S11301208F916F915F914F913F912F910F900FBEDF
S11301300F901F9018951F920F920FB60F921124D3
S11301408F939F9380910D0190910E01019690934E
S11301500E0180930D019F918F910F900FBE0F9010
S11301601F9018951F920F920FB60F9211248F9320
S11301709F9380910B0190910C01019690930C0137
S113018080930B019F918F910F900FBE0F901F9042
S1130190189580911101803119F08032E9F00895A9
S11301A080910B0190910C01019779F480910F01DA
S11301B09091100103974CF480910F0190911001DC
S11301C001969093100180930F0110920C011092EC
S11301D00B0110921101089580910B0190910C0173
S11301E0019781F480910F0190911001181619065E
S11301F04CF480910F01909110010197909310019C
S113020080930F0110920C0110920B0110921101B6
S1130210089590910A0181E0892780930A01089545
S1130220E0910F01F0911001EE0FFF1FE050FF4F1E
S113023020813181C90163E070E00E94FD01409199
S11302400A01442351F140910D0150910E016417AC
S113025075072CF0419A88B1837F88B912C08091C8
S11302600D0190910E01660F771F681779072CF026
S1130270429A88B1857F88B904C0439A88B1897F3E
S113028088B980910D0190910E012817390771F5F5
S113029010920E0110920D01089540910D0150919C
S11302A00E01641775072CF0439A88B1897F88B9C9
S11302B012C080910D0190910E01660F771F68178F
S11302C079072CF0429A88B1857F88B904C0419A95
S11302D088B1837F88B980910D0190910E01281710
S11302E0390721F410920E0110920D01089587B17F
S11302F08F6387B988B1807C88B98AB183708AB9E1
S11303008BB18C6F8BB9E8E6F0E0808184608083E8
S1130310EDE6F0E080818C6F808384B5826084BDDB
S1130320EEE6F0E08081826080838FE487BDE1E8BF
S1130330F0E0808188608083EFE6F0E08081826075
S113034080838AE09DE39093890080938800789469
S1130350C1E8D0E002E011E080911201813081F027
S113036018F0823081F1FACF459A809111018031E1
S113037021F080911101803279F710931201ECCFB2
S113038085B5856085BD8881856088830E94C900A4
S11303900E94100180911101803861F480910B0159
S11303A090910C01019711F40E94090110920C0123
S11303B010920B011092110180911101803461F6A9
S11303C000931201C9CF85B58A7F85BD88818A7F54
S11303D0888388B1807C88B910920E0110920D0137
S11303E010920C0110920B011092100110920F0147
S11303F01092110110921201AFCF97FB072E16F441
S1130400009407D077FD09D00E94110207FC05D0A3
S11304103EF4909581959F4F0895709561957F4F17
S11304200895AA1BBB1B51E107C0AA1FBB1FA61737
S1130430B70710F0A61BB70B881F991F5A95A9F789
S111044080959095BC01CD010895F894FFCFEE
S10D044E8403EE0258022C01FF00A3
S9030000FC
